{
  "_format": "hh-sol-artifact-1",
  "contractName": "TodoList",
  "sourceName": "contracts/aryan.sol",
  "abi": [
    {
      "inputs": [
        {
          "internalType": "string",
          "name": "description",
          "type": "string"
        }
      ],
      "name": "addTask",
      "outputs": [],
      "stateMutability": "nonpayable",
      "type": "function"
    },
    {
      "inputs": [
        {
          "internalType": "uint256",
          "name": "id",
          "type": "uint256"
        }
      ],
      "name": "completeTask",
      "outputs": [],
      "stateMutability": "nonpayable",
      "type": "function"
    },
    {
      "inputs": [
        {
          "internalType": "uint256",
          "name": "id",
          "type": "uint256"
        }
      ],
      "name": "deleteTask",
      "outputs": [],
      "stateMutability": "nonpayable",
      "type": "function"
    },
    {
      "inputs": [
        {
          "internalType": "uint256",
          "name": "id",
          "type": "uint256"
        }
      ],
      "name": "getTask",
      "outputs": [
        {
          "internalType": "uint256",
          "name": "",
          "type": "uint256"
        },
        {
          "internalType": "string",
          "name": "",
          "type": "string"
        },
        {
          "internalType": "bool",
          "name": "",
          "type": "bool"
        }
      ],
      "stateMutability": "view",
      "type": "function"
    },
    {
      "inputs": [],
      "name": "taskCount",
      "outputs": [
        {
          "internalType": "uint256",
          "name": "",
          "type": "uint256"
        }
      ],
      "stateMutability": "view",
      "type": "function"
    },
    {
      "inputs": [
        {
          "internalType": "uint256",
          "name": "",
          "type": "uint256"
        }
      ],
      "name": "tasks",
      "outputs": [
        {
          "internalType": "uint256",
          "name": "id",
          "type": "uint256"
        },
        {
          "internalType": "string",
          "name": "description",
          "type": "string"
        },
        {
          "internalType": "bool",
          "name": "completed",
          "type": "bool"
        }
      ],
      "stateMutability": "view",
      "type": "function"
    }
  ],
  "bytecode": "0x608060405234801561001057600080fd5b50610c53806100206000396000f3fe608060405234801561001057600080fd5b50600436106100625760003560e01c80631d65e77e14610067578063560f31921461009957806367238562146100b55780638d977672146100d1578063b6cb58a514610103578063e1e2955814610121575b600080fd5b610081600480360381019061007c919061059e565b61013d565b60405161009093929190610685565b60405180910390f35b6100b360048036038101906100ae919061059e565b610289565b005b6100cf60048036038101906100ca91906107f8565b61031f565b005b6100eb60048036038101906100e6919061059e565b6103b0565b6040516100fa93929190610685565b60405180910390f35b61010b61046f565b6040516101189190610841565b60405180910390f35b61013b6004803603810190610136919061059e565b610475565b005b600060606000808411801561015457506000548411155b610193576040517f08c379a000000000000000000000000000000000000000000000000000000000815260040161018a906108a8565b60405180910390fd5b600060016000868152602001908152602001600020604051806060016040529081600082015481526020016001820180546101cd906108f7565b80601f01602080910402602001604051908101604052809291908181526020018280546101f9906108f7565b80156102465780601f1061021b57610100808354040283529160200191610246565b820191906000526020600020905b81548152906001019060200180831161022957829003601f168201915b505050505081526020016002820160009054906101000a900460ff1615151515815250509050806000015181602001518260400151935093509350509193909250565b60008111801561029b57506000548111155b6102da576040517f08c379a00000000000000000000000000000000000000000000000000000000081526004016102d1906108a8565b60405180910390fd5b6001600082815260200190815260200160002060008082016000905560018201600061030691906104f7565b6002820160006101000a81549060ff0219169055505050565b60008081548092919061033190610957565b9190505550604051806060016040528060005481526020018281526020016000151581525060016000805481526020019081526020016000206000820151816000015560208201518160010190816103899190610b4b565b5060408201518160020160006101000a81548160ff02191690831515021790555090505050565b60016020528060005260406000206000915090508060000154908060010180546103d9906108f7565b80601f0160208091040260200160405190810160405280929190818152602001828054610405906108f7565b80156104525780601f1061042757610100808354040283529160200191610452565b820191906000526020600020905b81548152906001019060200180831161043557829003601f168201915b5050505050908060020160009054906101000a900460ff16905083565b60005481565b60008111801561048757506000548111155b6104c6576040517f08c379a00000000000000000000000000000000000000000000000000000000081526004016104bd906108a8565b60405180910390fd5b600180600083815260200190815260200160002060020160006101000a81548160ff02191690831515021790555050565b508054610503906108f7565b6000825580601f106105155750610534565b601f0160209004906000526020600020908101906105339190610537565b5b50565b5b80821115610550576000816000905550600101610538565b5090565b6000604051905090565b600080fd5b600080fd5b6000819050919050565b61057b81610568565b811461058657600080fd5b50565b60008135905061059881610572565b92915050565b6000602082840312156105b4576105b361055e565b5b60006105c284828501610589565b91505092915050565b6105d481610568565b82525050565b600081519050919050565b600082825260208201905092915050565b60005b838110156106145780820151818401526020810190506105f9565b60008484015250505050565b6000601f19601f8301169050919050565b600061063c826105da565b61064681856105e5565b93506106568185602086016105f6565b61065f81610620565b840191505092915050565b60008115159050919050565b61067f8161066a565b82525050565b600060608201905061069a60008301866105cb565b81810360208301526106ac8185610631565b90506106bb6040830184610676565b949350505050565b600080fd5b600080fd5b7f4e487b7100000000000000000000000000000000000000000000000000000000600052604160045260246000fd5b61070582610620565b810181811067ffffffffffffffff82111715610724576107236106cd565b5b80604052505050565b6000610737610554565b905061074382826106fc565b919050565b600067ffffffffffffffff821115610763576107626106cd565b5b61076c82610620565b9050602081019050919050565b82818337600083830152505050565b600061079b61079684610748565b61072d565b9050828152602081018484840111156107b7576107b66106c8565b5b6107c2848285610779565b509392505050565b600082601f8301126107df576107de6106c3565b5b81356107ef848260208601610788565b91505092915050565b60006020828403121561080e5761080d61055e565b5b600082013567ffffffffffffffff81111561082c5761082b610563565b5b610838848285016107ca565b91505092915050565b600060208201905061085660008301846105cb565b92915050565b7f5461736b204944206973206f7574206f662072616e67652e0000000000000000600082015250565b60006108926018836105e5565b915061089d8261085c565b602082019050919050565b600060208201905081810360008301526108c181610885565b9050919050565b7f4e487b7100000000000000000000000000000000000000000000000000000000600052602260045260246000fd5b6000600282049050600182168061090f57607f821691505b602082108103610922576109216108c8565b5b50919050565b7f4e487b7100000000000000000000000000000000000000000000000000000000600052601160045260246000fd5b600061096282610568565b91507fffffffffffffffffffffffffffffffffffffffffffffffffffffffffffffffff820361099457610993610928565b5b600182019050919050565b60008190508160005260206000209050919050565b60006020601f8301049050919050565b600082821b905092915050565b600060088302610a017fffffffffffffffffffffffffffffffffffffffffffffffffffffffffffffffff826109c4565b610a0b86836109c4565b95508019841693508086168417925050509392505050565b6000819050919050565b6000610a48610a43610a3e84610568565b610a23565b610568565b9050919050565b6000819050919050565b610a6283610a2d565b610a76610a6e82610a4f565b8484546109d1565b825550505050565b600090565b610a8b610a7e565b610a96818484610a59565b505050565b5b81811015610aba57610aaf600082610a83565b600181019050610a9c565b5050565b601f821115610aff57610ad08161099f565b610ad9846109b4565b81016020851015610ae8578190505b610afc610af4856109b4565b830182610a9b565b50505b505050565b600082821c905092915050565b6000610b2260001984600802610b04565b1980831691505092915050565b6000610b3b8383610b11565b9150826002028217905092915050565b610b54826105da565b67ffffffffffffffff811115610b6d57610b6c6106cd565b5b610b7782546108f7565b610b82828285610abe565b600060209050601f831160018114610bb55760008415610ba3578287015190505b610bad8582610b2f565b865550610c15565b601f198416610bc38661099f565b60005b82811015610beb57848901518255600182019150602085019450602081019050610bc6565b86831015610c085784890151610c04601f891682610b11565b8355505b6001600288020188555050505b50505050505056fea2646970667358221220a11e956711912ad32e1d3adec7e5456e8e20de4404f1086ccbe75036f3916abb64736f6c63430008120033",
  "linkReferences": {},
  "deployedLinkReferences": {}
}