{
  "_format": "hh-sol-artifact-1",
  "contractName": "TodoList",
  "sourceName": "contracts/aryan.sol",
  "abi": [
    {
      "inputs": [
        {
          "internalType": "string",
          "name": "description",
          "type": "string"
        }
      ],
      "name": "addTask",
      "outputs": [],
      "stateMutability": "nonpayable",
      "type": "function"
    },
    {
      "inputs": [
        {
          "internalType": "uint256",
          "name": "id",
          "type": "uint256"
        }
      ],
      "name": "completeTask",
      "outputs": [],
      "stateMutability": "nonpayable",
      "type": "function"
    },
    {
      "inputs": [
        {
          "internalType": "uint256",
          "name": "id",
          "type": "uint256"
        }
      ],
      "name": "deleteTask",
      "outputs": [],
      "stateMutability": "nonpayable",
      "type": "function"
    },
    {
      "inputs": [],
      "name": "taskCount",
      "outputs": [
        {
          "internalType": "uint256",
          "name": "",
          "type": "uint256"
        }
      ],
      "stateMutability": "view",
      "type": "function"
    },
    {
      "inputs": [
        {
          "internalType": "uint256",
          "name": "",
          "type": "uint256"
        }
      ],
      "name": "tasks",
      "outputs": [
        {
          "internalType": "uint256",
          "name": "id",
          "type": "uint256"
        },
        {
          "internalType": "string",
          "name": "description",
          "type": "string"
        },
        {
          "internalType": "bool",
          "name": "completed",
          "type": "bool"
        }
      ],
      "stateMutability": "view",
      "type": "function"
    }
  ],
  "bytecode": "0x608060405234801561001057600080fd5b50610aca806100206000396000f3fe608060405234801561001057600080fd5b50600436106100575760003560e01c8063560f31921461005c57806367238562146100785780638d97767214610094578063b6cb58a5146100c6578063e1e29558146100e4575b600080fd5b61007660048036038101906100719190610415565b610100565b005b610092600480360381019061008d9190610588565b610196565b005b6100ae60048036038101906100a99190610415565b610227565b6040516100bd9392919061067a565b60405180910390f35b6100ce6102e6565b6040516100db91906106b8565b60405180910390f35b6100fe60048036038101906100f99190610415565b6102ec565b005b60008111801561011257506000548111155b610151576040517f08c379a00000000000000000000000000000000000000000000000000000000081526004016101489061071f565b60405180910390fd5b6001600082815260200190815260200160002060008082016000905560018201600061017d919061036e565b6002820160006101000a81549060ff0219169055505050565b6000808154809291906101a89061076e565b91905055506040518060600160405280600054815260200182815260200160001515815250600160008054815260200190815260200160002060008201518160000155602082015181600101908161020091906109c2565b5060408201518160020160006101000a81548160ff02191690831515021790555090505050565b6001602052806000526040600020600091509050806000015490806001018054610250906107e5565b80601f016020809104026020016040519081016040528092919081815260200182805461027c906107e5565b80156102c95780601f1061029e576101008083540402835291602001916102c9565b820191906000526020600020905b8154815290600101906020018083116102ac57829003601f168201915b5050505050908060020160009054906101000a900460ff16905083565b60005481565b6000811180156102fe57506000548111155b61033d576040517f08c379a00000000000000000000000000000000000000000000000000000000081526004016103349061071f565b60405180910390fd5b600180600083815260200190815260200160002060020160006101000a81548160ff02191690831515021790555050565b50805461037a906107e5565b6000825580601f1061038c57506103ab565b601f0160209004906000526020600020908101906103aa91906103ae565b5b50565b5b808211156103c75760008160009055506001016103af565b5090565b6000604051905090565b600080fd5b600080fd5b6000819050919050565b6103f2816103df565b81146103fd57600080fd5b50565b60008135905061040f816103e9565b92915050565b60006020828403121561042b5761042a6103d5565b5b600061043984828501610400565b91505092915050565b600080fd5b600080fd5b6000601f19601f8301169050919050565b7f4e487b7100000000000000000000000000000000000000000000000000000000600052604160045260246000fd5b6104958261044c565b810181811067ffffffffffffffff821117156104b4576104b361045d565b5b80604052505050565b60006104c76103cb565b90506104d3828261048c565b919050565b600067ffffffffffffffff8211156104f3576104f261045d565b5b6104fc8261044c565b9050602081019050919050565b82818337600083830152505050565b600061052b610526846104d8565b6104bd565b90508281526020810184848401111561054757610546610447565b5b610552848285610509565b509392505050565b600082601f83011261056f5761056e610442565b5b813561057f848260208601610518565b91505092915050565b60006020828403121561059e5761059d6103d5565b5b600082013567ffffffffffffffff8111156105bc576105bb6103da565b5b6105c88482850161055a565b91505092915050565b6105da816103df565b82525050565b600081519050919050565b600082825260208201905092915050565b60005b8381101561061a5780820151818401526020810190506105ff565b60008484015250505050565b6000610631826105e0565b61063b81856105eb565b935061064b8185602086016105fc565b6106548161044c565b840191505092915050565b60008115159050919050565b6106748161065f565b82525050565b600060608201905061068f60008301866105d1565b81810360208301526106a18185610626565b90506106b0604083018461066b565b949350505050565b60006020820190506106cd60008301846105d1565b92915050565b7f5461736b204944206973206f7574206f662072616e67652e0000000000000000600082015250565b60006107096018836105eb565b9150610714826106d3565b602082019050919050565b60006020820190508181036000830152610738816106fc565b9050919050565b7f4e487b7100000000000000000000000000000000000000000000000000000000600052601160045260246000fd5b6000610779826103df565b91507fffffffffffffffffffffffffffffffffffffffffffffffffffffffffffffffff82036107ab576107aa61073f565b5b600182019050919050565b7f4e487b7100000000000000000000000000000000000000000000000000000000600052602260045260246000fd5b600060028204905060018216806107fd57607f821691505b6020821081036108105761080f6107b6565b5b50919050565b60008190508160005260206000209050919050565b60006020601f8301049050919050565b600082821b905092915050565b6000600883026108787fffffffffffffffffffffffffffffffffffffffffffffffffffffffffffffffff8261083b565b610882868361083b565b95508019841693508086168417925050509392505050565b6000819050919050565b60006108bf6108ba6108b5846103df565b61089a565b6103df565b9050919050565b6000819050919050565b6108d9836108a4565b6108ed6108e5826108c6565b848454610848565b825550505050565b600090565b6109026108f5565b61090d8184846108d0565b505050565b5b81811015610931576109266000826108fa565b600181019050610913565b5050565b601f8211156109765761094781610816565b6109508461082b565b8101602085101561095f578190505b61097361096b8561082b565b830182610912565b50505b505050565b600082821c905092915050565b60006109996000198460080261097b565b1980831691505092915050565b60006109b28383610988565b9150826002028217905092915050565b6109cb826105e0565b67ffffffffffffffff8111156109e4576109e361045d565b5b6109ee82546107e5565b6109f9828285610935565b600060209050601f831160018114610a2c5760008415610a1a578287015190505b610a2485826109a6565b865550610a8c565b601f198416610a3a86610816565b60005b82811015610a6257848901518255600182019150602085019450602081019050610a3d565b86831015610a7f5784890151610a7b601f891682610988565b8355505b6001600288020188555050505b50505050505056fea26469706673582212205d03bec00dc520895a22b4d1229359c802e37ea512a9eb155635420b961c44bd64736f6c63430008120033",
  "linkReferences": {},
  "deployedLinkReferences": {}
}